:1000000012C02CC02BC02AC029C028C027C026C0BF
:1000100025C024C023C084C1AFC120C01FC01EC0E2
:100020001DC023C11BC011241FBECFE5D4E0DEBF1D
:10003000CDBF11E0A0E6B0E0EEE0F0E102C0059037
:100040000D92A238B107D9F712E0A2E8B1E001C0E1
:100050001D92A730B107E1F7E9D4D7C7D1CFBF923E
:10006000CF92DF92EF92FF920F931F93CF93DF9384
:100070007C01EA01FC0180E004C09191992319F010
:100080008F5F8617D1F7C82EDD24F701EC0DFD1D1B
:100090008081882309F050C0A6014F5F5F4F30E098
:1000A00020E0BB24B394162F00E031C0F701E40F29
:1000B000F51F8081882399F0832F90E0FC01EE0FDB
:1000C000FF1FEE0FFF1FEC0FFD1F222319F4B38259
:1000D000408303C083818F5F838321E012C021307E
:1000E00079F4E32FF0E0EE0FFF1FEE0FFF1FEC0F90
:1000F000FD1F838186959081890F818342833F5FB5
:1001000020E0CA010196612F702F93D4AC014C15E9
:100110005D0561F6213089F4E32FF0E0EE0FFF1F5B
:10012000EE0FFF1FEC0FFD1F838186959081890FD5
:10013000818342833F5F01C03FEF832FDF91CF91E7
:100140001F910F91FF90EF90DF90CF90BF90089597
:100150008A98A3988C988B988E988D98B8988F9839
:10016000BA98B998BC98BB98A098BD98A298A19845
:100170009298AB989498939896989598C0989798D9
:10018000C298C198C498C398A898C598AA98A998E5
:10019000089581E0829B80E08093820181E09B9BB7
:1001A00080E08093830181E0849B80E080938401E0
:1001B00081E0839B80E08093850181E0869B80E0E5
:1001C000809386011092870186B3817080938801A5
:1001D00080B3881F8827881F8093890181E0B29BA4
:1001E00080E080938A0181E0B19B80E080938B0165
:1001F00081E0B49B80E080938C0181E0B39B80E040
:1002000080938D0183B3817080938E0181E0B59BD3
:1002100080E080938F0181E09A9B80E08093900141
:1002200081E0999B80E08093910182E891E00895BC
:10023000B0DFFC0180E090E020E030E04191240F4D
:10024000311D220F331F019680319105B9F7C90185
:10025000089582B986B78F7D86BF86B7856486BFCD
:100260008FEF8093DE01789408951F920F920FB65E
:100270000F9211248F939F93EF93FF9381B190E09E
:10028000887F907080389105A1F08138910524F421
:1002900080369105D1F507C0883A9105F1F0883B89
:1002A000910599F51AC085EC86BF8FEF8093DE012A
:1002B0002EC083B19091DE019F3F41F4853118F447
:1002C0008093DE0122C01092DE011FC0E091DE01AA
:1002D000F0E0ED50FE4F80830DC08091DE018F3F36
:1002E00011F41092DE01E091DE01F0E0E152FE4FE8
:1002F000808183B98091DE018F5F8093DE018091E0
:10030000DE01833110F085E801C085EC86BFFF91E6
:10031000EF919F918F910F900FBE0F901F901895A6
:100320001F920F920FB60F9211242F938F939F93CA
:10033000EF93FF939BB18CB1E0919401EF5FEF716C
:1003400020919301E21741F09871E0939401F0E05D
:10035000E956FE4F808301C092E080919201892B83
:1003600080939201FF91EF919F918F912F910F9028
:100370000FBE0F901F9018951F920F920FB60F92FD
:1003800011248F939F93EF93FF9390919601809107
:100390009501981761F0E0919501EF5FEF71E0939F
:1003A0009501F0E0E954FE4F80818CB901C0559869
:1003B000FF91EF919F918F910F900FBE0F901F9023
:1003C0001895109296011092950110929401109236
:1003D000930197FF02C022E02BB9907890BD89B9B4
:1003E00088E98AB986E880BD08959091940180914A
:1003F00093019817A1F0809193018F5F8F71E82F7F
:10040000F0E0E956FE4F20813091920180939301F4
:1004100010929201932F80E0820F911D089580E049
:1004200091E00895909196019F5F9F7120919501B1
:100430009217E1F3E92FF0E0E954FE4F80839093A7
:100440009601559A0895CF93DF93EC0101C0EADF3E
:1004500089918823E1F7DF91CF910895CF93DF93BE
:10046000EC0101C0DFDFFE01219684918823D1F7E2
:10047000DF91CF910895F89482E4EBDE83E390E07E
:10048000A0DF899A81B38E7C81BB62DE7894089567
:100490008F929F92AF92BF92DF92EF92FF920F9353
:1004A0001F93CF93DF93CDB7DEB7C45AD0400FB6BA
:1004B000F894DEBF0FBECDBFBBDE9093DF0110927C
:1004C000E00167DE4C0160E1AE014F5F5F4FC7DDC9
:1004D000D82E882329F41092D70110E000E03EC006
:1004E00021E0821729F40A8110E18C81181B27C0B2
:1004F00081E08D1510F5EA81AE2EBB24FE81EF2E32
:10050000FF24C5018E199F09409620E130E0B90112
:1005100090D2482FC7018A199B094096B90189D208
:10052000082F10E1841720F4181B06950E0F07C042
:10053000141B042F06950F0F02C010E000E08091FD
:10054000D701882321F40093D8011093D90181E0C9
:100550008093D7010093DA011093DB018091D801D9
:100560008093E2018091D9018093E3010093E4013B
:100570001093E5018091DA018093E6018091DB011F
:100580008093E7018091DC019091DD0101969093C9
:10059000DD018093DC01A3E0883E9A0709F033C2B5
:1005A0001092DD011092DC018BE13CDF80E690E0EF
:1005B0004ADF8BE137DF84E690E045DF00D000D0F2
:1005C00000D0EDB7FEB7319621E4E22EF12CEC0E0F
:1005D000FD1EADB7BEB71296FC92EE92119787E65C
:1005E00090E093838283D48215824AD2EDB7FEB71E
:1005F00036960FB6F894FEBF0FBEEDBFC70123DFDE
:1006000000D000D000D0EDB7FEB73196ADB7BEB781
:100610001296FC92EE92119789E790E09383828381
:100620008091D801848315822BD2EDB7FEB7369620
:100630000FB6F894FEBF0FBEEDBFC70104DF00D0B8
:1006400000D000D0EDB7FEB73196ADB7BEB7129669
:10065000FC92EE9211978FE890E0938382838091D1
:10066000D901848315820CD2EDB7FEB736960FB64A
:10067000F894FEBF0FBEEDBFC701E5DE00D000D08D
:1006800000D0EDB7FEB73196ADB7BEB71296FC926B
:10069000EE92119784EA90E093838283048315821B
:1006A000EFD1EDB7FEB736960FB6F894FEBF0FBE8A
:1006B000EDBFC701C8DE00D000D000D0EDB7FEB757
:1006C0003196ADB7BEB71296FC92EE92119784EBBD
:1006D00090E09383828314831582D2D1EDB7FEB765
:1006E00036960FB6F894FEBF0FBEEDBFC701ABDE66
:1006F00000D000D000D0EDB7FEB73196ADB7BEB791
:100700001296FC92EE92119783EC90E09383828391
:100710008091DA0184831582B3D1EDB7FEB73696A6
:100720000FB6F894FEBF0FBEEDBFC7018CDE00D040
:1007300000D000D0EDB7FEB73196ADB7BEB7129678
:10074000FC92EE92119788ED90E0938382838091E2
:10075000DB018483158294D1EDB7FEB736960FB6D0
:10076000F894FEBF0FBEEDBFC7016DDE8CEE90E0CA
:100770006ADE740100E010E0C80183709070009799
:1007800011F48CE74FDED7018D917D01882311F0A4
:1007900081E301C080E346DE0F5F1F4F003111058A
:1007A00059F783EF90E04FDEEDB7FEB73A970FB6FB
:1007B000F894FEBF0FBEEDBF31968E010F5B1F4F49
:1007C000ADB7BEB712961C930E93119788E091E0D7
:1007D00093838283D4011F968C911F978483158203
:1007E0008C918683178211968C918087118648D1CF
:1007F000EDB7FEB73A960FB6F894FEBF0FBEEDBF49
:10080000C80121DE8DB79EB708970FB6F8949EBF3A
:100810000FBE8DBFEDB7FEB73196ADB7BEB712961E
:100820001C930E9311978CE191E093838283D40102
:100830001E968C911E978483158212968C918683C6
:1008400017821ED1EDB7FEB738960FB6F894FEBFEB
:100850000FBEEDBFC801F7DD8DB79EB708970FB685
:10086000F8949EBF0FBE8DBFEDB7FEB73196ADB702
:10087000BEB712961C930E9311978CE291E093836E
:100880008283D4011D968C911D97848315821396C3
:100890008C9186831782F4D0EDB7FEB738960FB6E9
:1008A000F894FEBF0FBEEDBFC801CDDD8DB79EB77A
:1008B00008970FB6F8949EBF0FBE8DBFEDB7FEB779
:1008C0003196ADB7BEB712961C930E9311978DE378
:1008D00091E093838283D4011C968C911C9784832E
:1008E000158214968C9186831782CAD0EDB7FEB715
:1008F00038960FB6F894FEBF0FBEEDBFC801A3DD5A
:100900008DB79EB708970FB6F8949EBF0FBE8DBFE8
:10091000EDB7FEB73196ADB7BEB712961C930E93E6
:1009200011978EE491E093838283D4011B968C917E
:100930001B978483158215968C9186831782A0D08D
:10094000EDB7FEB738960FB6F894FEBF0FBEEDBFF9
:10095000C80179DD8DB79EB708970FB6F8949EBF92
:100960000FBE8DBFEDB7FEB73196ADB7BEB71296CD
:100970001C930E9311978FE591E093838283D401AA
:100980001A968C911A978483158216968C91868379
:10099000178276D0EDB7FEB738960FB6F894FEBF43
:1009A0000FBEEDBFC8014FDD8DB79EB70A970FB6DA
:1009B000F8949EBF0FBE8DBFEDB7FEB73196ADB7B1
:1009C000BEB712961C930E9311978FE691E0938316
:1009D0008283D40119968C91199784831582189675
:1009E0008C9118978683178217968C918087118631
:1009F00047D0EDB7FEB73A960FB6F894FEBF0FBEDC
:100A0000EDBFC80120DDCC55DF4F0FB6F894DEBF37
:100A10000FBECDBFDF91CF911F910F91FF90EF904F
:100A2000DF90BF90AF909F908F90089524DD30DDD0
:100A3000FECF97FB092E07260AD077FD04D00CD0F5
:100A400006D000201AF4709561957F4F0895F6F74F
:100A5000909581959F4F0895AA1BBB1B51E107C03C
:100A6000AA1FBB1FA617B70710F0A61BB70B881F3E
:100A7000991F5A95A9F780959095BC01CD010895CD
:100A8000AEE0B0E0E5E4F5E097C20D891E8986E0AE
:100A90008C831A8309838FEF9FE79E838D83AE013A
:100AA000475E5F4FCE0101966F89788D08D0EF8148
:100AB000F885E00FF11F10822E96E4E099C2ADE0B8
:100AC000B0E0E4E6F5E06AC23C017D876C875A013C
:100AD000FC0117821682838181FFBBC12E0108941D
:100AE000411C511CF3019381EC85FD8593FD85919B
:100AF00093FF8191FD87EC87882309F4A6C1853295
:100B000041F493FD859193FF8191FD87EC878532B8
:100B100021F490E0B301B8D1E5CFFF24EE2410E03A
:100B20001032B0F48B3269F08C3228F4803251F0FC
:100B3000833271F40BC08D3239F0803349F4116087
:100B40002CC01260146029C0186027C0106125C035
:100B500017FD2EC0282F20532A3098F416FF08C006
:100B60008F2D880FF82EFF0CFF0CF80EF20E15C01B
:100B70008E2D880FE82EEE0CEE0CE80EE20E1062C1
:100B80000CC08E3221F416FD60C1106406C08C3694
:100B900011F4106802C0883659F4EC85FD8593FD88
:100BA000859193FF8191FD87EC87882309F0B8CF69
:100BB000982F9554933018F09052933038F424E0E5
:100BC00030E0A20EB31E3FE339830FC0833631F00D
:100BD000833781F0833509F056C021C0F50180814B
:100BE000898322E030E0A20EB31E21E0C22ED12C78
:100BF000420113C092E0292E312C2A0C3B1CF50136
:100C00008080918016FF03C06F2D70E002C06FEFEF
:100C10007FEFC4012ED16C0151011F7714C082E017
:100C2000282E312C2A0C3B1CF5018080918016FF68
:100C300003C06F2D70E002C06FEF7FEFC4010ED1D3
:100C40006C011068510113FD1AC005C080E290E0EC
:100C5000B3011AD1EA948E2D90E0C816D906B0F3EC
:100C60000EC0F40117FD859117FF81914F0190E0AF
:100C7000B3010AD1E110EA940894C108D108C11463
:100C8000D10479F7DFC0843611F0893649F5F501D2
:100C900017FF07C080819181A281B38124E030E0F9
:100CA00008C080819181AA2797FDA095BA2F22E0E4
:100CB00030E0A20EB31E012F0F76B7FF08C0B0952B
:100CC000A095909581959F4FAF4FBF4F0068BC0195
:100CD000CD01A2012AE030E003D1D82ED4183EC0C5
:100CE000853721F41F7E2AE030E020C0197F8F363F
:100CF000A9F0803720F4883509F0A7C00BC08037F1
:100D000021F0883709F0A1C001C0106114FF09C0AB
:100D1000146007C014FF08C0166006C028E030E069
:100D200005C020E130E002C020E132E0F50117FF0C
:100D300007C0608171818281938144E050E006C0E8
:100D40006081718180E090E042E050E0A40EB51E29
:100D5000A201C6D0D82ED418012F0F7706FF09C0E4
:100D60000E7FDF1430F404FF06C002FD04C00F7EC6
:100D700002C01D2D01C01F2D802F90E004FF0CC06C
:100D8000FE01ED0DF11D2081203311F4097E09C013
:100D900002FF06C01E5F05C086789070009709F0BC
:100DA0001F5F802E992403FD11C000FF0CC0FD2C95
:100DB0001E1548F4FE0CF11A1E2D05C080E290E0CD
:100DC000B30162D01F5F1E15C8F304C01E1510F4D6
:100DD000E11A01C0EE2484FE0EC080E390E0B3016E
:100DE00053D082FE1DC081FE03C088E590E010C094
:100DF00088E790E00DC0C40186789070009781F07C
:100E000081FC02C080E201C08BE207FD8DE290E030
:100E1000B3013AD005C080E390E0B30135D0FA9435
:100E2000DF14C8F3DA94F201ED0DF11D808190E03A
:100E3000B3012AD0DD20B1F705C080E290E0B30114
:100E400023D0EA94EE20C9F74DCEF3018681978135
:100E500002C08FEF9FEF2D96E2E1BCC0FC01059030
:100E6000615070400110D8F7809590958E0F9F1FAC
:100E70000895FC016150704001900110D8F78095F1
:100E800090958E0F9F1F08950F931F93CF93DF931D
:100E90008C01EB018B8181FF1BC082FF0DC02E8175
:100EA0003F818C819D812817390764F4E881F9819D
:100EB0000193F983E88306C0E885F985802F0995B9
:100EC000009731F48E819F8101969F838E8302C0AB
:100ED0000FEF1FEFC801DF91CF911F910F91089580
:100EE000FA01AA27283051F1203181F1E8946F935B
:100EF0006E7F6E5F7F4F8F4F9F4FAF4FB1E03ED001
:100F0000B4E03CD0670F781F891F9A1FA11D680F9E
:100F1000791F8A1F911DA11D6A0F711D811D911DD1
:100F2000A11D20D009F468943F912AE0269F112446
:100F30003019305D3193DEF6CF010895462F4770AA
:100F4000405D4193B3E00FD0C9F7F6CF462F4F7005
:100F5000405D4A3318F0495D31FD4052419302D063
:100F6000A9F7EACFB4E0A695979587957795679509
:100F7000BA95C9F700976105710508959B01AC0109
:100F80000A2E06945795479537952795BA95C9F730
:100F9000620F731F841F951FA01D08952F923F920B
:100FA0004F925F926F927F928F929F92AF92BF9279
:100FB000CF92DF92EF92FF920F931F93CF93DF9325
:100FC000CDB7DEB7CA1BDB0B0FB6F894DEBF0FBE82
:100FD000CDBF09942A88398848885F846E847D84CF
:100FE0008C849B84AA84B984C884DF80EE80FD80D1
:100FF0000C811B81AA81B981CE0FD11D0FB6F89447
:0E100000DEBF0FBECDBFED010895F894FFCF07
:10100E005B324A005B4800626C6F636B5F636F75A7
:10101E006E743A2025640D0A0073746172745F64F5
:10102E006972656374696F6E3A2025640D0A0073E8
:10103E00746172745F64697374616E63653A2025BE
:10104E00640D0A00646972656374696F6E3A2025D7
:10105E00640D0A0064697374616E63653A202564D9
:10106E000D0A006C6173745F646972656374696FF5
:10107E006E3A2025640D0A006C6173745F646973A7
:10108E0074616E63653A2025640D0A0064617461B3
:10109E003A20002020202020202020202020202048
:1010AE0020202020200D0A00090931353A25642020
:1010BE00303A256420313A25640D0A000931343A5C
:1010CE002564090909323A25640D0A0031333A259F
:1010DE00640909090909333A25640D0A0031323AC7
:1010EE0025640909090909343A25640D0A003131CC
:1010FE003A25640909090909353A25640D0A0009DA
:10110E0031303A2564090909363A25640D0A000979
:10111E0009393A256420383A256420373A25640D7A
:02112E000A00B5
:00000001FF
