:1000000012C02CC02BC02AC029C028C027C026C0BF
:1000100025C024C023C07DC0A8C020C01FC01EC0F2
:100020001DC025C01BC011241FBECFE5D4E0DEBF1C
:10003000CDBF10E0A0E6B0E0E4E6F5E002C0059038
:100040000D92A037B107D9F720E0A0E7B0E001C0DA
:100050001D92AA3FB207E1F79BD182C2D1CF82B9EC
:1000600085E486BF8FEF8093B500789408951F9242
:100070000F920FB60F9211248F939F93EF93FF93DC
:1000800081B1887F803871F040F48036B9F585EC15
:1000900086BF8FEF8093B50033C0883AB9F0883BB4
:1000A000A9F02CC083B19091B5009F3F41F48332F9
:1000B00018F48093B50022C01092B5001FC0E091E3
:1000C000B500F0E0E852FF4F80830DC08091B5008D
:1000D0008F3F11F41092B500E091B500F0E0EA54C2
:1000E000FF4F808183B98091B5008F5F8093B50009
:1000F0008091B500813210F085E801C085EC86BFA3
:10010000FF91EF919F918F910F900FBE0F901F90D5
:1001100018951F920F920FB60F9211242F938F9361
:100120009F93EF93FF938BB19CB18C71E091720020
:10013000EF5FEF7120917100E21739F0E0937200E8
:10014000F0E0EB58FF4F908301C082E09091700087
:10015000892B80937000FF91EF919F918F912F9148
:100160000F900FBE0F901F9018951F920F920FB611
:100170000F9211248F939F93EF93FF9390917400AC
:1001800080917300981761F0E0917300EF5FEF7159
:10019000E0937300F0E0EB56FF4F80818CB901C013
:1001A0005598FF91EF919F918F910F900FBE0F90F7
:1001B0001F901895109274001092730010927200A4
:1001C0001092710097FF02C022E02BB9907890BD89
:1001D00089B988E98AB986E880BD0895909172004E
:1001E000809171009817A9F0909171009F5F9F71A5
:1001F000E92FF0E0EB58FF4F208180917000909341
:1002000071001092700090E0982F8827820F911D46
:10021000089580E091E00895909174009F5F9F7130
:10022000209173009217E1F3E92FF0E0EB56FF4FB6
:10023000808390937400559A0895CF93DF93EC01D7
:100240008991882311F0E8DFFBCFDF91CF910895EA
:10025000CF93DF93FC018491EF012196882319F05D
:10026000DBDFFE01F8CFDF91CF91089597B18F7159
:10027000907E892B87B9369A3699FECF84B195B195
:100280000895A29A81B38C6181BB87B3876087BBD5
:1002900081B3806681BB82B38F7982BB80E487B9EA
:1002A00083E086B9379A80E0E1CFE82FF0E0E05AAA
:1002B000FF4F9081983060F482B3837E82BB22B37B
:1002C00034E0939FC0011124822B82BB80E00BC0DD
:1002D000903150F488B3887F88BB28B388EF890FAA
:1002E000822B88BB81E0C2CF80E090E00895BF926E
:1002F000CF92DF92EF92FF920F931F93CF93DF93F2
:10030000CDB7DEB7A0970FB6F894DEBF0FBECDBF56
:10031000B82E092FAA9A84E89BE00197F1F700C054
:100320000000FE0131966F017F0110E0812FBDDFDB
:10033000F701819391937F011F5F1031B9F7AA985C
:1003400084E89BE00197F1F700C00000EB2CF02E51
:1003500010E0812FAADFF601219131916F01821BFC
:10036000930BF701819391937F011F5F103189F700
:10037000A0960FB6F894DEBF0FBECDBFDF91CF9130
:100380001F910F91FF90EF90DF90CF90BF90089555
:10039000CF93DF93CDB7DEB7C054D1090FB6F89431
:1003A000DEBF0FBECDBF6DDF8FE590E003DF89E6D6
:1003B00056DE81E08093D8008E010F5D1F4F9AE0DA
:1003C000A92EB12CEE24E394F12C99249A948091D7
:1003D000D800882309F449C0CE0101966C01FC01C4
:1003E00011921192E017F107D9F78AE0682E712C6B
:1003F000C8017DDFD801FE0131968D919D9120814C
:100400003181820F931F81939193E017F107A9F730
:10041000EEEFFFE83197F1F70000F1E06F1A710895
:1004200039F7F60180819181B50173D061937193A1
:100430006F01E017F107A9F7F7E82FEF8CE2F15011
:1004400020408040E1F700C0000082E090E0FC0125
:10045000E852FF4F2081FC01EA53FF4F20830196B1
:1004600082319105A1F71092D8008091D90088239C
:1004700091F082E090E02091D900FC01E852FF4F1A
:100480002083FC01EA53FF4F2083019682319105BE
:1004900091F71092D900C8012ADFD801FE013196E8
:1004A0006F0160E070E080E090E02D913D91F601F9
:1004B000419151916F01241B350B37FF03C03195DA
:1004C00021953109AC014E5F5F4FFA01E852FF4FB1
:1004D000E081F0E0E217F30748F4F701082E02C0CC
:1004E000EE0FFF1F0A94E2F76E2B7F2BFA01EA54FE
:1004F000FF4F2F3F310519F014F0908201C0208387
:1005000001968031910589F66093B6007093B7002B
:100510005ECF97FB072E16F4009406D077FD08D027
:100520000BD007FC05D03EF4909581959F4F089520
:10053000709561957F4F0895AA1BBB1B51E107C0C1
:10054000AA1FBB1FA617B70710F0A61BB70B881F63
:10055000991F5A95A9F780959095BC01CD010895F2
:04056000F894FFCF3D
:100564000902040006050703010A0C080E0D0F0B0F
:00000001FF
