:1000000012C021C020C01FC01EC01DC01CC01BC00C
:100010001AC019C018C072C09DC015C014C013C04A
:1000200012C01AC010C011241FBECFE5D4E0DEBF3D
:10003000CDBF20E0A0E6B0E001C01D92A33EB20714
:10004000E1F79DD2C6C2DCCF82B985E486BF8FEFCF
:100050008093BA00789408951F920F920FB60F9272
:1000600011248F939F93EF93FF9381B1887F803802
:1000700071F040F48036B9F585EC86BF8FEF809340
:10008000BA0033C0883AB9F0883BA9F02CC083B1DC
:100090009091BA009F3F41F4853118F48093BA00E3
:1000A00022C01092BA001FC0E091BA00F0E0E15304
:1000B000FF4F80830DC08091BA008F3F11F41092E2
:1000C000BA00E091BA00F0E0E554FF4F808183B9B7
:1000D0008091BA008F5F8093BA008091BA0083311B
:1000E00010F085E801C085EC86BFFF91EF919F91EC
:1000F0008F910F900FBE0F901F9018951F920F9227
:100100000FB60F9211242F938F939F93EF93FF932A
:100110008BB19CB18C71E0916200EF5FEF71209127
:100120006100E21739F0E0936200F0E0EB59FF4F15
:10013000908301C082E090916000892B80936000E1
:10014000FF91EF919F918F912F910F900FBE0F9084
:100150001F9018951F920F920FB60F9211248F9334
:100160009F93EF93FF9390916400809163009817A1
:1001700061F0E0916300EF5FEF71E0936300F0E006
:10018000EB57FF4F80818CB901C05598FF91EF91DB
:100190009F918F910F900FBE0F901F901895109206
:1001A000640010926300109262001092610097FF49
:1001B00002C022E02BB9907890BD89B988E98AB94C
:1001C00086E880BD08959091620080916100981743
:1001D000A9F0909161009F5F9F71E92FF0E0EB59CA
:1001E000FF4F208180916000909361001092600029
:1001F00090E0982F8827820F911D089580E091E06C
:100200000895909164009F5F9F7120916300921701
:10021000E1F3E92FF0E0EB57FF4F80839093640008
:10022000559A0895CF93DF93EC018991882311F0BB
:10023000E8DFFBCFDF91CF910895CF93DF93FC01EF
:100240008491EF012196882319F0DBDFFE01F8CFBE
:10025000DF91CF9108958A98A3988C988B988E9867
:100260008D98B8988F98BA98B998BC98BB98A09870
:10027000BD98A298A1989298AB98949893989698C4
:100280009598C0989798C298C198C498C398A89810
:10029000C598AA98A998089580B3E5EAF0E082FB92
:1002A000882780F9808383B383FB882780F9818343
:1002B00080B382958170828380B383FB882780F925
:1002C000838380B386FB882780F9848380B385FB92
:1002D000882780F9858386B38170868380B3881FE1
:1002E0008827881F878386B382FB882780F98087C9
:1002F00086B386958170818786B382958170828767
:1003000086B383FB882780F9838783B381708487D2
:1003100086B385FB882780F9858783B382FB88278E
:1003200080F9868783B3869581708787CF0108958A
:10033000B3DFFC019C01205F3F4F80E090E04191E2
:10034000840F911D880F991FE217F307C1F70895D5
:1003500082E47ADE80CFAF92BF92CF92DF92EF92AB
:10036000FF920F931F93CF93DF93CDB7DEB7C054A7
:10037000D1090FB6F894DEBF0FBECDBFD9DF182F5D
:10038000092F8ADFAE014F5F5F4F60E184D0D82E26
:10039000811106C01092B900E0E020E030E04AC0D0
:1003A00081E0D81641F0DE01149680E090E0E0E0B4
:1003B0002D2D30E005C0EC813A8120E12E1B2BC0B1
:1003C000821793072CF44C91E40F01961496F8CF02
:1003D000CA80AC2CB12C4E81242F30E0C501821B89
:1003E000930B409650E1E52EF12CB701CBD0F82FBE
:1003F0002A193B09C9014096B701C4D020E18F17E3
:1004000030F4281B582F5695352F3C0D04C02F1B58
:100410003F2F3695340F8091B900811104C030937D
:10042000B8002093B70081E08093B9003093B60004
:100430002093B5000093BB001093BC00E093BD0077
:10044000D092BE00330F3093BF008091B800880F68
:100450008093C0008091B600880F8093C1002093E4
:10046000C2008091B7008093C3008091B500809353
:10047000C400C05CDF4F0FB6F894DEBF0FBECDBF27
:10048000DF91CF911F910F91FF90EF90DF90CF9070
:10049000BF90AF900895BF92CF92DF92EF92FF92FC
:1004A0000F931F93CF93DF93EC019A01EC2FFD2F55
:1004B000DE2ED81AD61618F491919111F9CFED2CA1
:1004C000F12CFE01EE0DFF1D808181114BC0C70193
:1004D000019640E0B12CCC24C394062F10E08E1579
:1004E0009F0571F1FE01E80FF91F5081552399F026
:1004F000E42FF0E0EE0FFF1FEE0FFF1FE20FF31FE0
:10050000B11003C0C382808303C053815F5F5383F4
:10051000BB24B39411C051E0B5120DC0F90154E0F1
:10052000459FE00DF11D1124538156956081560FB2
:10053000518382834F5FB12C0196B80123D0CFCF76
:1005400081E0B81211C0F90194E0499FE00DF11D5E
:100550001124838186959081890F8183D28281E0E5
:10056000840F03C08FEF01C0842FDF91CF911F91C3
:100570000F91FF90EF90DF90CF90BF900895E8DE4D
:10058000EADEFECF97FB072E16F4009406D077FD27
:1005900008D00BD007FC05D03EF4909581959F4F75
:1005A0000895709561957F4F0895AA1BBB1B51E17B
:1005B00007C0AA1FBB1FA617B70710F0A61BB70BD3
:1005C000881F991F5A95A9F780959095BC01CD0178
:0605D0000895F894FFCF2E
:00000001FF
