:1000000013C037C036C0F1C134C033C032C031C0B4
:1000100030C02FC02EC089C0B4C02BC02AC029C098
:1000200028C030C026C00C0411241FBECFE5D4E088
:10003000DEBFCDBF10E0A0E6B0E0E4E9F8E002C02A
:1000400005900D92A237B107D9F721E0A2E7B0E001
:1000500001C01D92A63AB207E1F710E0C4E1D0E07A
:1000600003C02197FE01DBD3C331D107D1F7CBD336
:100070000FC4C6CF82B985E486BF8FEF8093BB00E3
:10008000789408951F920F920FB60F9211248F93B8
:100090009F93EF93FF93A89581B1887F803871F08B
:1000A00040F48036B9F585EC86BF8FEF8093BB00B6
:1000B00033C0883AB9F0883BA9F02CC083B1909145
:1000C000BB009F3F41F4813418F48093BB0022C0F1
:1000D0001092BB001FC0E091BB00F0E0E450FF4F66
:1000E00080830DC08091BB008F3F11F41092BB0044
:1000F000E091BB00F0E0E454FF4F808183B9809130
:10010000BB008F5F8093BB008091BB008F3310F0EA
:1001100085E801C085EC86BFFF91EF919F918F919B
:100120000F900FBE0F901F9018951F920F920FB651
:100130000F9211242F938F939F93EF93FF938BB183
:100140009CB18C71E0917400EF5FEF7120917300AE
:10015000E21739F0E0937400F0E0E958FF4F908324
:1001600001C082E090917200892B80937200FF9110
:10017000EF919F918F912F910F900FBE0F901F9035
:1001800018951F920F920FB60F9211248F939F9381
:10019000EF93FF939091760080917500981761F02E
:1001A000E0917500EF5FEF71E0937500F0E0E956C4
:1001B000FF4F80818CB901C05598FF91EF919F91BD
:1001C0008F910F900FBE0F901F9018951092760090
:1001D00010927500109274001092730097FF02C085
:1001E00022E02BB9907890BD89B988E98AB986E870
:1001F00080BD089590917400809173009817A9F0C4
:10020000909173009F5F9F71E92FF0E0E958FF4FD5
:10021000208180917200909373001092720090E0A0
:10022000982F8827820F911D089580E091E008950E
:10023000909176009F5F9F71209175009217E1F376
:10024000E92FF0E0E956FF4F808390937600559AAE
:100250000895CF93DF93EC018991882311F0E8DFB3
:10026000FBCFDF91CF910895CF93DF93FC01849171
:10027000EF012196882319F0DBDFFE01F8CFDF9133
:10028000CF91089597B18F71907E892B87B9369A57
:100290003699FECF85B10895A29A81B38C6181BB56
:1002A00087B3876087BB81B3806681BB82B38F7958
:1002B00082BB80E687B982E086B9379A80E0E2CFD8
:1002C000E82FF0E0EE59FF4F9081983060F482B350
:1002D000837E82BB22B334E0939FC0011124822B22
:1002E00082BB80E00BC0903150F488B3887F88BB1C
:1002F00028B388EF890F822B88BB81E0C3CF80E0D1
:10030000089597FF03C09195819591090895AA9A40
:100310000895FF920F931F93CF93DF9300D0CDB733
:10032000DEB789839A83F3DF8981082F9A81192F99
:10033000F12C8F2DC5DFF80181938F01F394F0E14B
:10034000FF12F7CF0F900F90DF91CF911F910F9178
:10035000FF900895AA980895BF92CF92DF92EF92EE
:10036000FF920F931F93CF93DF93CDB7DEB76097C4
:100370000FB6F894DEBF0FBECDBFB82E092FC7DF72
:10038000CE0101966C017C0110E0812F99DFF7010D
:1003900081937F011F5F1031C1F7DCDFEB2CF02E62
:1003A00000E0F60111916F01802F8ADF212F30E0EC
:1003B000281B310937FF03C0319521953109F70119
:1003C00021937F010F5F003161F760960FB6F894BB
:1003D000DEBF0FBECDBFDF91CF911F910F91FF9078
:1003E000EF90DF90CF90BF9008951F920F920FB6BD
:1003F0000F9211248F939F93AF93BF938091B70077
:100400009091B800A091B900B091BA000196A11DD9
:10041000B11D8093B7009093B800A093B900B0933A
:10042000BA00BF91AF919F918F910F900FBE0F9027
:100430001F90189585B58B6085BD89B7806889BF89
:100440008DE783BD1092B7001092B8001092B900EA
:100450001092BA00789408956091B7007091B80036
:100460008091B9009091BA000895CF92DF92EF92F7
:10047000FF920F931F930091B7001091B800209145
:10048000B9003091BA00C090B700D090B800E090A9
:10049000B900F090BA00C01AD10AE20AF30AC616EF
:1004A000D706E806F90678F31F910F91FF90EF90B9
:1004B000DF90CF900895019739F0880F991F880F2A
:1004C000991F02970197F1F70895B4DFE5DE83E302
:1004D00090E07CDE89E6CECDCB013ECFCB0119CFBB
:1004E000862FEECE611113CF35CFE62FF0E0E45426
:1004F000FF4F40830895F90170E0621B730B8E2F4C
:10050000821B841740F4DB01AE0FBF1F8191A454FE
:10051000BF4F8C93F4CF0895E62FF0E0E450FF4FE7
:10052000808110820895CB0194CECF93DF93CDB715
:10053000DEB72A970FB6F894DEBF0FBECDBFCB0152
:100540004AE0BE016F5F7F4F70D183DE2A960FB6FF
:10055000F894DEBF0FBECDBFDF91CF910895CF934A
:10056000DF93E0E7F1E0C0E6D1E0AEE3B1E08AE09E
:10057000819319921D921D9291E0E038F907C1F71D
:1005800010923D0110923C0110925F0110925E01A9
:1005900098E088E10FB6F894A89581BD0FBE91BD93
:1005A000DF91CF91089560E671E080E891E094CF0B
:1005B000EF92FF920F931F93CF93DF9340913C01F3
:1005C00050913D014115510509F44FC080915E01E4
:1005D00090915F01A0E6B1E0C0E7D1E0EEE3F1E089
:1005E00020E030E000271127041B150BEE24E394D4
:1005F000F12C7D916991671740F4608171816417D6
:1006000075071CF46F5F7F4F07C06081718106170B
:10061000170724F4615071097183608361917191AE
:100620006417750751F4B701022E02C0660F771FD9
:100630000A94E2F7862B972B0EC06017710759F4C6
:10064000B701022E02C0660F771F0A94E2F7609589
:100650007095862397232F5F3F4F2031310549F650
:1006600090935F0180935E011FC0E0E6F1E0A0E798
:10067000B1E020E030E080E090E041E050E07191B6
:100680006D91671748F4BA01082E02C0660F771FF4
:100690000A94E2F7262B372B01968031910579F7E2
:1006A00030935F0120935E01DF91CF911F910F91F5
:1006B000FF90EF9008950F931F93CF932EE531E0B5
:1006C00042E060E080E891E016DF00E611E0C2E081
:1006D000F80141918F016C2F80E891E006DFCF5F38
:1006E000C231B1F700E711E0F80141918F016C2FA1
:1006F00080E891E0FADECF5FC232B1F7CF911F916F
:100700000F910895CF93DF9361E080E891E004DFDB
:1007100081110CC062E080E891E0FEDE882371F078
:1007200090E090933D0180933C0108C0E0E7F1E048
:10073000819391E0E038F907D9F7ECCFC0E0D0E041
:100740006C2F6D5F80E891E0E7DE882321F0FE01E9
:10075000E059FE4F80832196C031D10589F7DF91A2
:10076000CF91089579DE2091A2013091A301621BFF
:10077000730B6F3F710519F014F06FEF70E080910B
:10078000A0019091A1018617970724F47093A1010D
:100790006093A001809160009091610068177907D3
:1007A00024F470936100609360004091600068E2FF
:1007B00080E891E09ADE4091A00169E280E891E052
:1007C00094DE04B603FE05C041E067E280E891E0F4
:1007D0008CDE04B602FE05C042E067E280E891E0EC
:1007E00084DE04B601FE05C043E067E280E891E0E4
:1007F0007CDE32DE6093A2017093A3018093A4019A
:100800009093A5010895ABDECEDED2DE54DF7ADF11
:100810009C9BFACFA895F8CF80E891E056CEEE0FDA
:10082000FF1F0590F491E02D0994BB274A3031F465
:10083000992322F4BDE2909581959F4F01C0BB277B
:10084000FB015527AA27880F991FAA1FA41710F08C
:10085000A41B83955051B9F7A05DAA3308F0A95D98
:10086000A193009779F7B111B1931192CB0100C018
:10087000DC01FC01672F71917723E1F7329704C007
:100880007C916D9370836291AE17BF07C8F3089592
:04089000F894FFCF0A
:1008940064000902040006050703010A0C080E0D92
:0208A4000F0B38
:00000001FF
