:1000000013C037C036C0F5C134C033C032C031C0B0
:1000100030C02FC02EC089C0B4C02BC02AC029C098
:1000200028C030C026C02E0411241FBECFE5D4E066
:10003000DEBFCDBF10E0A0E6B0E0E8EDF8E002C022
:1000400005900D92A237B107D9F721E0A2E7B0E001
:1000500001C01D92A83AB207E1F710E0C4E1D0E078
:1000600003C02197FE01FDD3C331D107D1F7EDD3F2
:1000700031C4C6CF82B985E486BF8FEF8093BB00C1
:10008000789408951F920F920FB60F9211248F93B8
:100090009F93EF93FF93A89581B1887F803871F08B
:1000A00040F48036B9F585EC86BF8FEF8093BB00B6
:1000B00033C0883AB9F0883BA9F02CC083B1909145
:1000C000BB009F3F41F4813418F48093BB0022C0F1
:1000D0001092BB001FC0E091BB00F0E0E450FF4F66
:1000E00080830DC08091BB008F3F11F41092BB0044
:1000F000E091BB00F0E0E454FF4F808183B9809130
:10010000BB008F5F8093BB008091BB008F3310F0EA
:1001100085E801C085EC86BFFF91EF919F918F919B
:100120000F900FBE0F901F9018951F920F920FB651
:100130000F9211242F938F939F93EF93FF938BB183
:100140009CB18C71E0917400EF5FEF7120917300AE
:10015000E21739F0E0937400F0E0E958FF4F908324
:1001600001C082E090917200892B80937200FF9110
:10017000EF919F918F912F910F900FBE0F901F9035
:1001800018951F920F920FB60F9211248F939F9381
:10019000EF93FF939091760080917500981761F02E
:1001A000E0917500EF5FEF71E0937500F0E0E956C4
:1001B000FF4F80818CB901C05598FF91EF919F91BD
:1001C0008F910F900FBE0F901F9018951092760090
:1001D00010927500109274001092730097FF02C085
:1001E00022E02BB9907890BD89B988E98AB986E870
:1001F00080BD089590917400809173009817A9F0C4
:10020000909173009F5F9F71E92FF0E0E958FF4FD5
:10021000208180917200909373001092720090E0A0
:10022000982F8827820F911D089580E091E008950E
:10023000909176009F5F9F71209175009217E1F376
:10024000E92FF0E0E956FF4F808390937600559AAE
:100250000895CF93DF93EC018991882311F0E8DFB3
:10026000FBCFDF91CF910895CF93DF93FC01849171
:10027000EF012196882319F0DBDFFE01F8CFDF9133
:10028000CF91089597B1907E8F71892B87B9369A57
:100290003699FECF85B10895A29A81B38C6181BB56
:1002A00087B3876087BB81B3806681BB82B38F7958
:1002B00082BB80E687B985E086B9379A80E0E2CFD5
:1002C000E82FF0E0EE59FF4F9081983060F482B350
:1002D000837E82BB22B334E0939FC0011124822B22
:1002E00082BB80E00BC0903150F488B3887F88BB1C
:1002F00028B388EF890F822B88BB81E0C3CF80E0D1
:10030000089597FF03C09195819591090895AA9A40
:1003100008950F931F93CF93DF93D82FC92FF7DF43
:100320000D2F1C2FC0E08C2FCBDFF80181938F01A4
:10033000CF5FC031C1F7DF91CF911F910F91089529
:10034000AA980895BF92CF92DF92EF92FF920F93F7
:100350001F93CF93DF93CDB7DEB760970FB6F894B6
:10036000DEBF0FBECDBFB82E092FD1DF8FE396E0E1
:100370000197F1F700C00000FE0131966F017F0187
:1003800010E0812F9DDFF70181937F011F5F103106
:10039000C1F7D6DF8FE396E00197F1F700C00000C8
:1003A000EB2CF02E00E0F60111916F01802F88DF19
:1003B000212F30E0A901481B5109CA0157FF03C092
:1003C000919581959109F70181937F010F5F00312C
:1003D00051F760960FB6F894DEBF0FBECDBFDF9128
:1003E000CF911F910F91FF90EF90DF90CF90BF9032
:1003F00008951F920F920FB60F9211248F939F931F
:10040000AF93BF938091B7009091B800A091B900CD
:10041000B091BA000196A11DB11D8093B7009093D1
:10042000B800A093B900B093BA00BF91AF919F916B
:100430008F910F900FBE0F901F90189585B58B6010
:1004400085BD89B7806889BF8DE783BD1092B700ED
:100450001092B8001092B9001092BA0078940895E2
:100460006091B7007091B8008091B9009091BA0086
:100470000895CF92DF92EF92FF920F931F93009116
:10048000B7001091B8002091B9003091BA00C09027
:10049000B700D090B800E090B900F090BA00C01A50
:1004A000D10AE20AF30AC616D706E806F90678F377
:1004B0001F910F91FF90EF90DF90CF9008950197DB
:1004C00039F0880F991F880F991F02970197F1F74C
:1004D0000895B4DFE1DE83E390E078DE89E6CACDFB
:1004E000CB0130CFCB0115CF862FEACE61110FCFD4
:1004F00027CFE62FF0E0E454FF4F40830895F90141
:1005000070E0621B730B8E2F821B841740F4DB019B
:10051000AE0FBF1F8191A454BF4F8C93F4CF0895A9
:10052000E62FF0E0E450FF4F808110820895CB0168
:1005300090CECF93DF93CDB7DEB72A970FB6F8945E
:10054000DEBF0FBECDBFCB014AE0BE016F5F7F4F64
:100550008ED17FDE2A960FB6F894DEBF0FBECDBFD8
:10056000DF91CF910895CF93DF93E2E7F1E0C2E608
:10057000D1E0AEE3B1E08AE0819319921D921D9221
:1005800091E0E238F907C1F710923D0110923C0169
:10059000109261011092600198E088E10FB6F89422
:1005A000A89581BD0FBE91BDDF91CF91089562E600
:1005B00071E082E891E094CFCF92DF92EF92FF92C8
:1005C0000F931F93CF93DF9340913C0150913D01D6
:1005D00080916001909161014115510509F44DC070
:1005E000C2E6D1E0A2E7B1E0EEE3F1E020E030E0E6
:1005F00000271127041B150BEE24E394F12CC9905E
:10060000DD90DC1440F460817181641775071CF47F
:100610006F5F7F4F09C0CD1448F460817181061768
:10062000170724F46150710971836083619171919E
:100630004617570751F4B701022E02C0660F771F05
:100640000A94E2F7862B972B0EC06017710759F4B6
:10065000B701022E02C0660F771F0A94E2F7609579
:100660007095862397232F5F3F4F2031310539F650
:10067000909361018093600130C0E2E6F1E0A2E76F
:10068000B1E020E030E040E050E061E070E0D19186
:10069000CD91CD1748F4EB01042E02C0CC0FDD1F25
:1006A0000A94E2F72C2B3D2B4F5F5F4F40315105F1
:1006B00071F730936101209360012115310539F004
:1006C000892B59F430935F0120935E0106C0892B7A
:1006D00021F410925F0110925E01DF91CF911F9182
:1006E0000F91FF90EF90DF90CF9008950F931F939D
:1006F000CF9320E631E042E060E082E891E0FFDE67
:1007000002E611E0C2E0F80141918F016C2F82E80E
:1007100091E0EFDECF5FC231B1F702E711E0F801FF
:1007200041918F016C2F82E891E0E3DECF5FC2320E
:10073000B1F72EE531E042E260E082E891E0CF914E
:100740001F910F91DCCE0F931F93CF9361E082E84E
:1007500091E0E6DE81110CC062E082E891E0E0DE2B
:10076000882371F090E090933D0180933C0108C094
:10077000E2E7F1E0819391E0E238F907D9F7ECCFB5
:1007800002E711E0C3E06C2F82E891E0C9DE882324
:1007900011F0F8018083CF5F0F5F1F4FC33199F7CE
:1007A000CF911F910F9108955BDE2091A4013091AC
:1007B000A501621B730B6F3F710519F014F06FEF09
:1007C00070E08091A2019091A3018617970724F40D
:1007D0007093A3016093A2018091600090916100E9
:1007E0006817790724F4709361006093600040916A
:1007F000600068E282E891E07CDE4091A20169E25B
:1008000082E891E076DE04B603FE05C041E067E2CF
:1008100082E891E06EDE04B602FE05C042E067E2C7
:1008200082E891E066DE04B601FE05C043E067E2BF
:1008300082E891E05EDE14DE6093A4017093A5016E
:100840008093A6019093A70108958DDEB0DEB4DEFB
:100850004DDF79DF9C9BFACFA895F8CF82E891E035
:1008600038CEEE0FFF1F0590F491E02D0994BB27C1
:100870004A3031F4992322F4BDE2909581959F4F3F
:1008800001C0BB27FB015527AA27880F991FAA1F64
:10089000A41710F0A41B83955051B9F7A05DAA339B
:1008A00008F0A95DA193009779F7B111B193119266
:1008B000CB0100C0DC01FC01672F71917723E1F7C8
:1008C000329704C07C916D9370836291AE17BF071D
:0808D000C8F30895F894FFCF6E
:1008D80064000902040006050703010A0C080E0D4E
:0208E8000F0BF4
:00000001FF
