:1000000013C037C036C035C034C033C032C031C071
:1000100030C02FC02EC088C0B3C02BC02AC029C09A
:1000200028C030C026C0D50211241FBECFE5D4E0C1
:10003000DEBFCDBF10E0A0E6B0E0E6E2F6E002C031
:1000400005900D92A037B107D9F721E0A0E7B0E005
:1000500001C01D92AC35B207E1F710E0C4E1D0E079
:1000600003C02197FE01A4D2C331D107D1F797D2A3
:10007000D8C2C6CF82B985E486BF8FEF8093B50022
:10008000789408951F920F920FB60F9211248F93B8
:100090009F93EF93FF9381B1887F803871F040F494
:1000A0008036B9F585EC86BF8FEF8093B50033C0FD
:1000B000883AB9F0883BA9F02CC083B19091B50083
:1000C0009F3F41F4833218F48093B50022C0109210
:1000D000B5001FC0E091B500F0E0E852FF4F80830B
:1000E0000DC08091B5008F3F11F41092B500E091E2
:1000F000B500F0E0EA54FF4F808183B98091B500EC
:100100008F5F8093B5008091B500813210F085E853
:1001100001C085EC86BFFF91EF919F918F910F9069
:100120000FBE0F901F9018951F920F920FB60F924F
:1001300011242F938F939F93EF93FF938BB19CB1D7
:100140008C71E0917200EF5FEF7120917100E21706
:1001500039F0E0937200F0E0EB58FF4F908301C05C
:1001600082E090917000892B80937000FF91EF9155
:100170009F918F912F910F900FBE0F901F90189508
:100180001F920F920FB60F9211248F939F93EF93AC
:10019000FF939091740080917300981761F0E09143
:1001A0007300EF5FEF71E0937300F0E0EB56FF4FE9
:1001B00080818CB901C05598FF91EF919F918F91EB
:1001C0000F900FBE0F901F90189510927400109210
:1001D0007300109272001092710097FF02C022E02B
:1001E0002BB9907890BD89B988E98AB986E880BD35
:1001F000089590917200809171009817A9F09091E4
:1002000071009F5F9F71E92FF0E0EB58FF4F208155
:1002100080917000909371001092700090E0982F80
:100220008827820F911D089580E091E008959091B4
:1002300074009F5F9F71209173009217E1F3E92F83
:10024000F0E0EB56FF4F808390937400559A089529
:10025000CF93DF93EC018991882311F0E8DFFBCF86
:10026000DF91CF910895CF93DF93FC018491EF014B
:100270002196882319F0DBDFFE01F8CFDF91CF91C3
:10028000089597B18F71907E892B87B9369A3699E8
:10029000FECF84B195B10895A29A81B38C6181BBE0
:1002A00087B3876087BB81B3806681BB82B38F7958
:1002B00082BB80E487B983E086B9379A80E0E1CFDA
:1002C000E82FF0E0E05AFF4F9081983060F482B35D
:1002D000837E82BB22B334E0939FC0011124822B22
:1002E00082BB80E00BC0903150F488B3887F88BB1C
:1002F00028B388EF890F822B88BB81E0C2CF80E0D2
:1003000090E0089597FF03C0919581959109089514
:10031000AA9A0895AA9808958F929F92AF92BF9239
:10032000DF92EF92FF920F931F93CF93DF93CDB79E
:10033000DEB7A0970FB6F894DEBF0FBECDBFD82EA4
:10034000092FE6DF8FE396E00197F1F700C0000088
:10035000FE0131965F017F0110E0812FB1DFF701CF
:10036000819391937F011F5F1031B9F7D3DF8FE342
:1003700096E00197F1F700C00000ED2CF02ED12C93
:1003800088248A94912CF501019111915F018D2DA2
:1003900097DF9801281B390B37FF03C03195219552
:1003A0003109F7012F3F310521F01CF09182808245
:1003B00002C031832083D394F2E0EF0EF11C80E180
:1003C000D812E1CFA0960FB6F894DEBF0FBECDBF16
:1003D000DF91CF911F910F91FF90EF90DF90BF9031
:1003E000AF909F908F90089557DF83E390E0EDDE0C
:1003F00088E640CECB0190CF862F62DF0895611151
:1004000087CF88CFE62FF0E0EA54FF4F408308956E
:10041000F90170E0621B730B8E2F821B841740F46E
:10042000DB01AE0FBF1F8191AA54BF4F8C93F4CF55
:100430000895E62FF0E0E852FF4F80810895CB0148
:1004400007CFCF93DF93CDB7DEB72A970FB6F894D7
:10045000DEBF0FBECDBFCB014AE0BE016F5F7F4F55
:10046000ADD0F6DE2A960FB6F894DEBF0FBECDBF34
:10047000DF91CF9108950F931F93CF93DF93CCE13A
:10048000D1E0FE011192119281E0EC33F807D1F72F
:1004900000E210E06CEF70E08CE391E0ABDFACEFDA
:1004A000B0E0ECE1F1E08D919D9120813181820FEE
:1004B000931F8193919381E0EC33F807A1F70150EA
:1004C000110941F78881998197FD4F9625E095950F
:1004D00087952A95E1F744968993999381E0CC33E7
:1004E000D80781F7DF91CF911F910F9108956CEF9D
:1004F00070E08CE391E07ECFCF93DF93ECEFF0E000
:10050000ACE1B1E020E030E080E090E041E050E09C
:10051000C191D1916D917D916C177D074CF4BA0119
:10052000082E02C0660F771F0A94E2F7262B372B9E
:1005300001968031910561F73093FB002093FA001A
:10054000DF91CF9108950F931F93CF932AEF30E05F
:1005500042E060E08CE391E05BDF0CEF10E0C2E092
:10056000F80140810E5F1F4F6C2F8CE391E04ADF52
:10057000CF5FC231A9F7CF911F910F91089561E02C
:100580008CE391E056DF882349F0ECE1F1E090E064
:100590008193919321E0EC33F207D1F708956BDF5B
:1005A000A6DFAADFD0DFEBDFFBCF8CE391E01CCF2F
:1005B000EE0FFF1F0590F491E02D0994BB274A3000
:1005C00031F4992322F4BDE2909581959F4F01C0AB
:1005D000BB27FB015527AA27880F991FAA1FA4171D
:1005E00010F0A41B83955051B9F7A05DAA3308F011
:1005F000A95DA193009779F7B111B1931192CB0145
:1006000000C0DC01FC01672F71917723E1F732977D
:1006100004C07C916D9370836291AE17BF07C8F3DD
:060620000895F894FFCFDD
:100626000902040006050703010A0C080E0D0F0B4C
:00000001FF
