:1000000013C037C036C035C034C033C032C031C071
:1000100030C02FC02EC0FFC12AC22BC02AC029C0A9
:1000200028C092C126C0E90011241FBECFE5D4E04C
:10003000DEBFCDBF10E0A0E6B0E0E8E9F5E002C029
:1000400005900D92A037B107D9F721E0A0E7B0E005
:1000500001C01D92AC35B207E1F710E0C4E1D0E079
:1000600003C02197FE0190D2C331D107D1F7ABD0A5
:1000700091C2C6CFEF92FF920F931F93CF93DF935E
:1000800002E910E0C2EBD0E0F80111921192CE1714
:10009000DF07D9F70F2EFAE0EF2EF12CF02D62E7F3
:1000A00070E082EB90E023D2A2E7B0E0F8018D91FE
:1000B0009D9120813181820F931F81939193CE175F
:1000C000DF07A9F78FE19EE40197F1F700C0000078
:1000D00091E0E91AF10819F72AE030E0F80180818F
:1000E0009181B9012AD2619371938F01EC17FD07B9
:1000F000A9F7DF91CF911F910F91FF90EF90089595
:1001000062E770E082EB90E0F2D10895CF93DF9345
:10011000A2E7B0E0E2E9F0E060E070E080E090E0CB
:10012000C1E0D0E04D915D912191319124173507C7
:100130004CF49E01082E02C0220F331F0A94E2F7EE
:10014000622B732B01968031910561F770937100DA
:1001500060937000DF91CF910895EF92FF921F930B
:10016000CF93DF9320E730E042E060E082EB90E065
:10017000C7D1C2E7D0E00F2EF2E9EF2EF0E0FF2E5C
:10018000F02D12E048812296612F82EB90E0B2D1EF
:100190001F5FCE15DF05B1F7DF91CF911F91FF9063
:1001A000EF90089561E082EB90E0C1D1882351F097
:1001B000E2E9F0E022EB30E090E081939193E217E6
:1001C000F307D9F7089556DF9BDFA0DFC6DFEADF2C
:1001D000FBCF82EB90E084D1089597B1907E8F7130
:1001E000892B87B9369A3699FECF84B195B1089597
:1001F000A29A81B38C6181BB87B3876087BB81B3CF
:10020000806681BB82B38F7982BB80EC87B983E043
:1002100086B9379A80E0E1DF0895E82FF0E0E05AF0
:10022000FF4F8081883058F492B3937E92BB92B393
:10023000880F880F892B82BB80E0CFDF0895803143
:1002400050F498B3987F98BB98B38850892B88BB9B
:1002500081E0C3DF089580E090E00895AA9A0895B0
:10026000AA9808959F92AF92BF92CF92DF92EF9299
:10027000FF920F931F93CF93DF93CDB7DEB7A09775
:100280000FB6F894DEBF0FBECDBFB82E092FE6DF44
:100290008FE396E00197F1F700C00000FE01319670
:1002A0006F017F0110E0812FB8DFF70181939193F7
:1002B0007F011F5F1031B9F7D3DF8FE396E001971D
:1002C000F1F700C00000EB2CF02E912CAA24AA9488
:1002D000B12CF601019111916F01892D9EDF9801DA
:1002E000281B390BC90122F422273327281B390B7D
:1002F0002F3F310509F024F4F7013183208303C037
:10030000F701B182A0829394F2E0EF0EF11C20E19C
:100310009212DFCFA0960FB6F894DEBF0FBECDBF0E
:10032000DF91CF911F910F91FF90EF90DF90CF90D1
:10033000BF90AF909F90089582B985E486BF8FEFFC
:1003400080931701789408951F920F920FB60F9221
:1003500011248F939F93EF93FF9381B1887F80380F
:1003600079F018F4803631F04BC0883A69F1883B57
:1003700059F146C085EC86BF8FEF8093170142C0CC
:1003800083B1909117019F3F51F4833218F4809309
:10039000170102C01092170185EC86BF33C0E091AF
:1003A0001701F0E0E65CFE4F8083809117018F5FBC
:1003B0008093170180911701813218F485EC86BF74
:1003C00021C085E886BF1EC0809117018F3F11F4C0
:1003D00010921701E0911701F0E0E85EFE4F808176
:1003E00083B9809117018F5F809317018091170166
:1003F000813218F485EC86BF05C085E886BF02C04F
:1004000085EC86BFFF91EF919F918F910F900FBE6A
:100410000F901F9018951F920F920FB60F921124F4
:100420002F938F939F93EF93FF938BB12CB18C718C
:10043000E091D400EF5FEF719091D300E91739F0AC
:10044000E093D400F0E0E952FF4F208301C082E046
:100450009091D200892B8093D200FF91EF919F91D0
:100460008F912F910F900FBE0F901F9018951F9294
:100470000F920FB60F9211248F939F93EF93FF93D8
:100480009091D6008091D500981761F0E091D50049
:10049000EF5FEF71E093D500F0E0E950FF4F80810E
:1004A0008CB901C05598FF91EF919F918F910F905A
:1004B0000FBE0F901F9018951092D6001092D50085
:1004C0001092D4001092D300992314F422E02BB997
:1004D000907890BD89B988E98AB986E880BD089589
:1004E00087DE83E390E0E8DF89E626DF0895CB012D
:1004F000B9DE0895E62FF0E0E85EFE4F40830895F0
:100500004423A1F0415050E04F5F5F4F420F531F13
:10051000F90170E0621B730BDB01AE0FBF1F81910D
:10052000A85EBE4F8C93E417F507B1F70895E62F48
:10053000F0E0E65CFE4F8081089597FB072E16F4ED
:10054000009406D077FD08D00BD007FC05D03EF410
:10055000909581959F4F0895709561957F4F08956F
:10056000AA1BBB1B51E107C0AA1FBB1FA617B707D9
:1005700010F0A61BB70B881F991F5A95A9F78095F5
:100580009095BC01CD010895EE0FFF1F0590F491E9
:08059000E02D0994F894FFCF5F
:100598000902040006050703010A0C080E0D0F0BDB
:00000001FF
